{
  "_format": "hh-sol-artifact-1",
  "contractName": "Mines",
  "sourceName": "contracts/Mines.sol",
  "abi": [
    {
      "anonymous": false,
      "inputs": [
        {
          "indexed": true,
          "internalType": "address",
          "name": "player",
          "type": "address"
        },
        {
          "indexed": false,
          "internalType": "uint256",
          "name": "amount",
          "type": "uint256"
        }
      ],
      "name": "BetPlaced",
      "type": "event"
    },
    {
      "anonymous": false,
      "inputs": [
        {
          "indexed": true,
          "internalType": "address",
          "name": "player",
          "type": "address"
        },
        {
          "indexed": false,
          "internalType": "uint256",
          "name": "amount",
          "type": "uint256"
        }
      ],
      "name": "CashoutSuccessful",
      "type": "event"
    },
    {
      "stateMutability": "payable",
      "type": "fallback"
    },
    {
      "inputs": [],
      "name": "bet",
      "outputs": [],
      "stateMutability": "payable",
      "type": "function"
    },
    {
      "inputs": [],
      "name": "getContractBalance",
      "outputs": [
        {
          "internalType": "uint256",
          "name": "",
          "type": "uint256"
        }
      ],
      "stateMutability": "view",
      "type": "function"
    },
    {
      "inputs": [
        {
          "internalType": "address payable",
          "name": "recipient",
          "type": "address"
        },
        {
          "internalType": "uint256",
          "name": "amount",
          "type": "uint256"
        }
      ],
      "name": "sendEtherFromContract",
      "outputs": [],
      "stateMutability": "nonpayable",
      "type": "function"
    },
    {
      "stateMutability": "payable",
      "type": "receive"
    }
  ],
  "bytecode": "0x6080604052348015600f57600080fd5b506106c78061001f6000396000f3fe6080604052600436106100385760003560e01c806311610c25146100dd5780633382634f146100e75780636f9fb98a146101105761008d565b3661008d573373ffffffffffffffffffffffffffffffffffffffff167f43e08d78302cdf9c94e1ffd293c2a3696139ee41cf3199b6f5eed9c7f6cc60903460405161008391906103a0565b60405180910390a2005b3373ffffffffffffffffffffffffffffffffffffffff167f43e08d78302cdf9c94e1ffd293c2a3696139ee41cf3199b6f5eed9c7f6cc6090346040516100d391906103a0565b60405180910390a2005b6100e561013b565b005b3480156100f357600080fd5b5061010e6004803603810190610109919061044a565b6101ce565b005b34801561011c57600080fd5b5061012561037f565b60405161013291906103a0565b60405180910390f35b6000341161017e576040517f08c379a0000000000000000000000000000000000000000000000000000000008152600401610175906104e7565b60405180910390fd5b3373ffffffffffffffffffffffffffffffffffffffff167f43e08d78302cdf9c94e1ffd293c2a3696139ee41cf3199b6f5eed9c7f6cc6090346040516101c491906103a0565b60405180910390a2565b80471015610211576040517f08c379a000000000000000000000000000000000000000000000000000000000815260040161020890610553565b60405180910390fd5b600073ffffffffffffffffffffffffffffffffffffffff168273ffffffffffffffffffffffffffffffffffffffff1603610280576040517f08c379a0000000000000000000000000000000000000000000000000000000008152600401610277906105bf565b60405180910390fd5b60008273ffffffffffffffffffffffffffffffffffffffff16826040516102a690610610565b60006040518083038185875af1925050503d80600081146102e3576040519150601f19603f3d011682016040523d82523d6000602084013e6102e8565b606091505b505090508061032c576040517f08c379a000000000000000000000000000000000000000000000000000000000815260040161032390610671565b60405180910390fd5b8273ffffffffffffffffffffffffffffffffffffffff167fc3e37cc81c748fc07d8ec60a61e874529e060006a334564dd0f81881c80adc728360405161037291906103a0565b60405180910390a2505050565b600047905090565b6000819050919050565b61039a81610387565b82525050565b60006020820190506103b56000830184610391565b92915050565b600080fd5b600073ffffffffffffffffffffffffffffffffffffffff82169050919050565b60006103eb826103c0565b9050919050565b6103fb816103e0565b811461040657600080fd5b50565b600081359050610418816103f2565b92915050565b61042781610387565b811461043257600080fd5b50565b6000813590506104448161041e565b92915050565b60008060408385031215610461576104606103bb565b5b600061046f85828601610409565b925050602061048085828601610435565b9150509250929050565b600082825260208201905092915050565b7f426574206d7573742062652067726561746572207468616e2030000000000000600082015250565b60006104d1601a8361048a565b91506104dc8261049b565b602082019050919050565b60006020820190508181036000830152610500816104c4565b9050919050565b7f496e73756666696369656e7420636f6e74726163742062616c616e6365000000600082015250565b600061053d601d8361048a565b915061054882610507565b602082019050919050565b6000602082019050818103600083015261056c81610530565b9050919050565b7f496e76616c696420726563697069656e74206164647265737300000000000000600082015250565b60006105a960198361048a565b91506105b482610573565b602082019050919050565b600060208201905081810360008301526105d88161059c565b9050919050565b600081905092915050565b50565b60006105fa6000836105df565b9150610605826105ea565b600082019050919050565b600061061b826105ed565b9150819050919050565b7f5472616e73666572206661696c65640000000000000000000000000000000000600082015250565b600061065b600f8361048a565b915061066682610625565b602082019050919050565b6000602082019050818103600083015261068a8161064e565b905091905056fea264697066735822122080b49bada63448bb91cea209c9051bc2eaad5c59eb0140650125fd80b54db8e564736f6c634300081c0033",
  "linkReferences": {},
  "deployedLinkReferences": {}
}